:0400000508006A95F0
:020000040800F2
:1000000000C00020E50C0008350D0008350D000883
:10001000350D0008350D0008350D00080000000002
:10002000000000000000000000000000350D000886
:10003000350D000800000000350D0008350D0008E2
:10004000350D0008350D0008350D0008350D000888
:10005000350D0008350D0008350D0008350D000878
:10006000350D0008350D0008350D0008350D000868
:10007000350D0008350D0008350D0008350D000858
:10008000350D0008350D0008350D0008350D000848
:10009000350D0008350D0008350D0008350D000838
:1000A000350D0008350D0008350D0008350D000828
:1000B000350D00080000000000000000350D0008AC
:1000C000350D00080000000000000000350D00089C
:1000D00000000000350D0008350D0008000000008C
:1000E000350D0008350D000800000000000000007C
:1000F0000000000000000000000000000000000000
:10010000000000000000000000000000350D0008A5
:1001100000000000000000000D0A0008350D000876
:10012000350D0008350D0008350D0008350D0008A7
:10013000350D000800000000000000000000000075
:10014000350D0008350D0008350D0008E9090008D7
:10015000350D0008350D0008350D0008350D000877
:10016000350D0008350D0008350D000800000000B1
:10017000350D0008350D00080000000000000000EB
:10018000350D0008350D0008350D00080000000091
:1001900010B5054C237833B9044B13B10448AFF3C1
:1001A00000800123237010BD280100200000000002
:1001B0006445000808B5034B1BB103490348AFF37E
:1001C000008008BD000000002C01002064450008EC
:1001D00080B4064A064B936000AF1B6883F308881F
:1001E000044B1B68BD465DF8047B184700ED00E03A
:1001F000005000080450000830B591B000F04AFCEF
:1002000000F0F8FB044600F021FCA0BB012500F043
:100210007DF810B1BDB3FFF7DBFF00F062FC02F028
:100220001CFF40220021684604F092F9184D00F0AE
:10023000E1FB001B052804D900F01EF900F0DAFBF1
:10024000044600F0EFFC684600F04DFC002807DD96
:10025000684602F059FF40220021684604F078F910
:1002600002F0FEFE2B78002BE1D0FA2000F0F5FB27
:1002700000F0FEFBDBE700F0BDFB001BB0F5FA6F02
:10028000C1D90025C3E700F049F80028C3D1C4E76D
:100290004401002010B50C4CADF5006D21464FF423
:1002A0000062684604F03AF900236C20CDF8FC3770
:1002B00000F008FB4FF400626946204600F048FB5E
:1002C0000DF5006D10BD00BF0060030800B50D4BBB
:1002D0001B68ADF6040D8BB14FF400620A49684605
:1002E00004F01CF900236C20CDF8F83700F0EAFA8E
:1002F0004FF400626946044800F02AFB0DF6040D35
:100300005DF804FBF867030800600308024B1868F7
:10031000B0FA80F040097047F8670308024B18688C
:10032000B0FA80F040097047FC6703082DE9F043FC
:100330000A7A4E7A8DB046EA022609380123B04285
:100340000C468DF80F3040F384800B78403B072B30
:1003500005D8DFE803F0083937555D510466012000
:100360000DB0BDE8F083D1F801503C4A25F07F453F
:1003700045F0006505F17843A3F5A043934266D8A4
:10038000374F7319BB4262D8364B1A6899460AB187
:100390003B688BB94FF00A085FFA88F008F1010852
:1003A00000F090FAB8F16D0FF6D13B680120C9F862
:1003B00000000BB904F06CF8324604F10A0128463B
:1003C00000F0C6FA0020CBE7402E42D100F076FCC8
:1003D0002549264800F078FC04A800F07DFC03F0D5
:1003E000D5FE04F10A030090202204A9204803F05E
:1003F000D1FE80B3FFF76AFF1E4B01221A70E1E7BE
:100400000A24E0B2013400F05DFA6D2CF9D1D9E78D
:10041000144B00241C6001210DF10F0002F028FC98
:10042000D0E78B7ACD2B0ED1CB7ADE2B0BD10B7B89
:10043000BA2B08D14B7BAA2B05D10024FFF72AFF4A
:100440008DF80F40E7E727238DF80F30E3E73020E2
:1004500086E7032084E7272082E700BFF717030021
:10046000F867030848010020F8170300005000084F
:1004700080450008440100200C490D480A680368C3
:100480008AB1013B0360581E272882BFB2FA82F26C
:1004900052090A600A2203EB430053431B0443EA58
:1004A000002000F087BA0133ECE700BF4C010020C8
:1004B00000000020024BD868C0F30220704700BF44
:1004C00000ED00E0054AD16C0143D164D36C82B0E9
:1004D00003400193019B02B0704700BF001002402F
:1004E000054A916D01439165936D82B0034001937C
:1004F000019B02B0704700BF00100240002070470F
:100500004D4A136823F0070343F0020310B513604C
:10051000136803F00703022B03D08621474800F03D
:1005200082FB474A474C136823F4C06343F40073CB
:100530001360D4F8983043F00103C4F89830D4F82D
:1005400098309A07FBD5236843F0010323602368A2
:100550009B07FCD5236843F008032360236823F03E
:10056000F00343F0B0032360636823F47F436360C8
:10057000A36823F00303A360A36813F00C0FFBD15F
:10058000A368314823F0F003A360A36823F4E06379
:10059000A360A36843F46053A36001F0E1FD2B4A1C
:1005A0002948136843F00403136001F0E7FDD4F811
:1005B000883023F00303C4F88830D4F8883023F05F
:1005C0004063C4F888304FF08070FFF789FFA36B59
:1005D00043F08073A363A36B23F08073A3631C4B6E
:1005E0005A6822F0E0625A605A6822F000425A606B
:1005F0005A6822F0405242F000525A605A68120C77
:10060000120442F43B4242F07F025A605A6822F4DC
:100610007F0242F408125A601A6822F47C5242F4B3
:1006200000521A60FFF746FFFFF768FF094B000111
:10063000C0B283F8230010BD00200240C14500086D
:100640000070004000100240006CDC0210E000E08E
:100650000060004000ED00E0F0B57C4C7C4D4FF0B8
:100660000063A3602B6E43F001032B662B6E95B0E5
:1006700003F0010300934FF08050009BFFF730FF21
:10068000E36823F4E0631B041B0C43F0BF6343F4F3
:100690000133E360FFF70EFFFFF730FF0001C0B248
:1006A0002076FFF707FFFFF729FF0001C0B2607651
:1006B000FFF700FFFFF722FF0001C0B2A076FFF7AF
:1006C000F9FEFFF71BFF0001C0B2E077FFF7F2FE73
:1006D000FFF714FF0001C0B284F82000FFF7EAFE24
:1006E000FFF70CFF0001C0B284F82200FFF7E2FE22
:1006F000FFF704FF0001C0B284F82300AB6D43F0A4
:100700008053AB65FFF7FCFE01204FF08044FFF7FC
:10071000D9FE02200025FFF7D5FE0120FFF7E0FEFD
:100720004FF47A77256101A92046CDE90375ADF82C
:100730000450029500F022FB236843F080032360FD
:10074000A36823F4A03323F007030126A3600CAAB7
:10075000602310212046CDE90C36CDE90E671095B7
:1007600000F046FBA3693B4F23F48063A3610CAA0E
:100770004FF480712046CDE90D6600F039FB7B68AF
:1007800023F004037B600CAA4FF480512046CDE98E
:100790000D6600F02DFB7B6823F480637B60A3680B
:1007A00023F00803A360A36823F48043A360A36835
:1007B00023F43F43A360636823F070036360A3687E
:1007C00023F08003A3600E2206A902234FF090407D
:1007D000CDE90623CDE90855CDE90A5600F058FCCD
:1007E000236833432360102004F58054FFF778FE1C
:1007F0004BF68033ADF830300CA95A2320460E93C7
:100800000D9500F0BBFA236823F080032360636832
:1008100023F070036360A36823F08003A360E368A0
:100820003343E3602368334323604FF48020FFF7B2
:1008300049FE094A136843F004031360256162B658
:10084000064B4FF480025A6015B0F0BD00ED00E099
:1008500000100240180000400008065000E100E0CF
:100860000D4A0E49536843F4806310B5536002F596
:10087000D0320B4C936D43F0806393652046002289
:1008800001F055FE2046074901F066FE2046BDE80E
:10089000104001F068BE00BF00700040A8000020BA
:1008A000503A00202C000020044B5A69002ABFBF98
:1008B000034A9A6002F188329A6070470020024031
:1008C0002301674508B572B611490B69DB03FCD4F7
:1008D000FFF7EAFF0B690B614A6922F4FF6222F01D
:1008E00007024A614B6943EAC00343F002034B61CC
:1008F0004B6943F480334B61054B1A69D203FCD436
:100900001A695A6922F007025A6162B608BD00BF2F
:100910000020024030B572B60C490C460D69ED035B
:10092000FCD40D690D614D6945F001054D61026012
:1009300043602369DB03FCD42369012323616369DA
:1009400023F00103636162B630BD00BF00200240A6
:100950002DE9F3411546164A1369DB03FCD4FFF772
:10096000A3FF20F007002C4646194F192B1B9D4270
:10097000A6EB040802D802B0BDE8F081082C22469C
:10098000A7EB040128BF0822684603F0C7FD072C27
:1009900006D8C4F10802FF210DEB040003F0D8FDD6
:1009A000DDE900234046FFF7B5FF083CDEE700BF66
:1009B000002002404FF47A73C2B25A434FF0804194
:1009C000120A10B59A1A8A63020CC0F307205A4320
:1009D0004FF4C064B2FBF4F29A1A43431B0AC3F506
:1009E0007A73CA630B6410BD014800F017BD00BFE5
:1009F000EC3C0020034B044A5B6A12685A2000FB5F
:100A000002307047001000405001002008B50B4B29
:100A100000221A610A4A136801331360FFF7EAFFE4
:100A2000084B1B68C01A082807D9074B186820B163
:100A300040B2BDE8084002F047BB08BD00100040CE
:100A40005001002058010020540100204FF0904335
:100A50001869C04300F00100704710B50146FFF768
:100A6000C9FF0446FFF7C6FF001B8842FAD310BD3A
:100A7000BFF34F8F0549064BCA6802F4E062134387
:100A8000CB60BFF34F8F00BFFDE700BF00ED00E07C
:100A90000400FA0538B54FF09044FFF7DDFD2168FA
:100AA000012393FAA3F2B2FA82F29A40032505FADF
:100AB00002F221EA020293FAA3F12260E26893FAB9
:100AC000A3F0B0FA80F093FAA3F19840B1FA81F163
:100AD00005FA00F0994022EA00028B401343E360DC
:100AE00038BDFFF7BDBE10B5044600F0E1F818B1FF
:100AF000204600F0BDF8402010BD00000549024628
:100B00000B8803F03003302BFAD0402381210248B8
:100B100001F0FFBC04680040503A0020FFF7EEBF30
:100B200037B53D4D2B685A1C044606D00093002370
:100B300001936CB1012003F0ABFC01237C200093F6
:100B4000FFF7C0FE042269462846FFF701FFEEE7E3
:100B500021462246A30003F1006303F57A331B68A4
:100B6000581C1ED101B10192DDE900230BBB12021A
:100B700001327D200192FFF7A5FE04220DEB020158
:100B80002648FFF7E5FE009B7C2001330093FFF72A
:100B900099FE214804226946FFF7DAFE019803B066
:100BA00030BD0234B4F5007F1A464FF00101D1D1B7
:100BB000D9E7013301931B0A934208D97C200093A3
:100BC000FFF780FE042269461348FFF7C1FEB4F523
:100BD000007F0FD1019B1B0A01337C200093FFF79C
:100BE00071FE042269460C48FFF7B2FE7D20FFF734
:100BF00069FE002404F10070042200F57A400DEB38
:100C000002018000FFF7A4FE054B01981A6890428C
:100C100000D1FEE71860C2E700E0030800E803081F
:100C20005C0100207047FEE7F8B50E4D2E68632E7C
:100C3000014613DC0C4F0D483C68402200EB841049
:100C400003F06CFC0134632CC8BF002306F10106DD
:100C5000D4BF3C603B602E600020F8BD4FF0FF30F9
:100C6000FBE700BF64010020681A00206801002033
:100C700010B50C4C0C4B2168402203EB811103F0A2
:100C80004DFC0A4B1A68002A09DD216801316329ED
:100C9000C8BF0021013A21601A60002010BD4FF04A
:100CA000FF30FBE7600100206801002064010020A4
:100CB000014B1868704700BF64010020014802F032
:100CC00061BC00BF701A00200A460146014802F0CC
:100CD00085BC00BF701A00200146014802F09CBC90
:100CE000701A0020DFF834D0002103E00C4B5B5871
:100CF000435004310B480C4B42189A42F6D30B4A2E
:100D000002E0002342F8043B094B9A42F9D300F079
:100D100013F803F0D1FBFFF76FFAFEE700C00020E5
:100D20005048000800000020280100202801002071
:100D300080410020FEE700000E4AD2F8883043F4DC
:100D40007003C2F888300C4B1A68002142F001028F
:100D50001A6099601A6822F0A85222F410221A60D0
:100D60004FF48052DA601A6822F480221A60996186
:100D7000704700BF00ED00E0001002401A4A03680F
:100D8000904210B502D0B0F1804F09D14C6823F0E9
:100D90007003904243EA040309D0B0F1804F06D0BB
:100DA000124A904203D002F58062904203D1CA6891
:100DB00023F44073134303608B68C3620B88836220
:100DC000094B984207D003F5A053984203D003F58E
:100DD0008063984201D10B7C0363436943F00103B4
:100DE0004361012010BD00BF002C014000400140C4
:100DF000B1F5807F30B500F0B58005D801293BD032
:100E0000102973D0002030BDB1F5803F00F0E5809F
:100E1000B1F5801F00F00D81B1F5805FF2D1036A5A
:100E2000156823F480530362036A4468C16921F0A2
:100E3000807121F4E64141EA0521156923F400534C
:100E400043EA0533556823F4805343EA05338F4D55
:100E5000A84207D005F5A055A84203D005F5806546
:100E6000A84204D1956924F4804444EA8514D268E8
:100E70004460C161026436E0036A156823F001032F
:100E80000362036A4168846924F4803424F07304A3
:100E90002C43156923F002032B43556823F001030B
:100EA0002B437A4DA84207D005F5A055A84203D0A0
:100EB00005F58065A84212D1556923F0080343EA7D
:100EC0008503956823F0040343EA8503956921F4BB
:100ED00080712943D56921F4007141EA4501D26846
:100EE000416084614263036201208CE7036A1568F4
:100EF00023F010030362036A4168846924F080745C
:100F000024F4E64444EA0524156923F0200343EA67
:100F10000513556823F0100343EA05135B4DA842FF
:100F200007D005F5A055A84203D005F58065A84275
:100F300013D1556923F0800343EA8513956823F0A4
:100F4000400343EA8513956921F4806141EA8501F4
:100F5000D56921F4006141EAC501D268416084612C
:100F60008263C0E7036A156823F480730362036A2F
:100F70004168C46924F4803424F073042C43156957
:100F800023F4007343EA0523556823F4807343EA8E
:100F900005233E4DA84207D005F5A055A84203D031
:100FA00005F58065A84213D1556923F4006343EA2F
:100FB0008523956823F4806343EA8523956921F4AA
:100FC000805141EA0511D56921F4005141EA4511EA
:100FD000D2684160C461C26385E7036A146823F480
:100FE00080330362036A416D21F4803121F0700186
:100FF0000C43116923F4003343EA0143516823F49D
:10100000803343EA01432149884207D001F5A051CA
:10101000884203D001F58061884206D14168956914
:1010200021F4803141EA05214160D268446582653E
:1010300059E7036A146823F480130362036A416D5D
:1010400021F0807121F4E04141EA0424116923F484
:10105000001343EA0153516823F4801343EA015318
:101060000A49884207D001F5A051884203D001F512
:101070008061884206D14168956921F4802141EA66
:1010800085214160D2684465C2652CE7002C01408F
:101090002DE9F04F0A6892FAA2F44D68B4FA84F48C
:1010A00005F1FF3C4FF0010803264FF00F0E32FA16
:1010B00004F30CD1BCF1010F06D84368C96823EAD8
:1010C00002034A43134343600120BDE8F08F08FA4E
:1010D00004F3134062D0D0F800A093FAA3F9B9FA50
:1010E00089F993FAA3F7B7FA87F74FEA490906FA9D
:1010F00009F97F002AEA090905FA07F749EA07070B
:10110000BCF1010F076016D8876893FAA3F9B9FA02
:1011100089F993FAA3FA4FEA490906FA09F927EA85
:101120000909BAFA8AFA8F684FEA4A0A07FA0AF7EF
:1011300049EA07078760C76893FAA3F9B9FA89F9FA
:1011400093FAA3FA4FEA490906FA09F927EA0909C5
:10115000BAFA8AFA0F694FEA4A0A07FA0AF749EA1D
:101160000707022DC76019D1FF2BD1F8149017D8AB
:10117000D0F820A093FAA3FBBBFA8BFB93FAA3F75A
:10118000B7FA87F74FEA8B030EFA03F3BF002AEA98
:10119000030309FA07F943EA09030362013486E706
:1011A000476A1B0A93FAA3FABAFA8AFA93FAA3F3E4
:1011B000B3FA83F34FEA8A0A0EFA0AFA9B0027EA87
:1011C0000A0709FA03F947EA09074762E6E72DE942
:1011D000F041044686B0002869D090F8293403F025
:1011E000FF021BB980F8282401F096F82546032356
:1011F00055F8100B84F8293400F000FC0FCD6E4632
:101200000FC62B68336004F1040898E80E002068CC
:1012100000F0E3FB0021206800F0FAFB00212246E9
:10122000234604F110050126084683F82810D986C4
:1012300001310F2983F8296083F82B00C3E90E00E0
:10124000186403F12003F0D100231F4682F82832EE
:1012500001330F2B82F8297282F82B72C2E98E7744
:10126000C2F8407202F12002F0D10FCD6E460FC6D7
:101270002B68336098E80E00206800F0CBFB012358
:1012800084F8247084F82934E369012B02D12046C4
:1012900000F08EFB236A012B02D1204600F076FB82
:1012A000206800F059FE002006B0BDE8F081012062
:1012B000FAE790F82834012B10B504460CD001232E
:1012C00080F82834006800F03FFE206800F08CFBB6
:1012D000002084F8280410BD0220FCE790F82824A0
:1012E000012A10B504460BD0012280F8282484F886
:1012F0002410006800F022FE002084F8280410BDAD
:101300000220FCE770B501F00F06044611F0800FD3
:101310004FEA461005461ED0254400F12801012061
:10132000214485F829000A614A780E70CB7002B119
:10133000CE81022B04BF00230B7194F82834012BBB
:1013400011D0012384F82834206800F07FFB0020AE
:1013500084F8280470BD254400F50A71002021445A
:1013600085F82902DFE70220F4E710B5044601F012
:101370000F00430111F0800F1A4615D0224403F1EB
:1013800028010123214482F82930087094F8283478
:10139000012B11D0012384F82834206800F0AEFC22
:1013A000002084F8280410BD224403F50A710023AC
:1013B000214482F82932E8E70220F4E770B501F011
:1013C0000F0100EB41164C01002586F8281204F5A8
:1013D0000A710144C6F83C22C6F84032C6F84452AD
:1013E00086F82952006800F0D3FD284670BD70B51C
:1013F00001F00F0100EB41154C012B640026012385
:1014000085F8281004F128010144EA636E6485F828
:101410002930006800F0BCFD304670BD2DE9F84F62
:101420000446006800F0A0FD000409D5DFF854A4CC
:10143000DFF854B42068B0F844301A0400F1CB80CF
:10144000206800F091FD41050FD52268B2F84430C4
:1014500023F480631B041B0C2046A2F8443000F0E8
:10146000AEFF00212046FFF739FF206800F07CFD29
:10147000430408D52268B2F8443023F480431B04A7
:101480001B0CA2F84430206800F06EFD870408D5DC
:101490002268B2F8443023F400531B041B0CA2F85A
:1014A0004430206800F060FDC60426D52268B2F8FA
:1014B000403023F004031B041B0CA2F84030B2F8A8
:1014C000403023F008031B041B0CA2F8403094F8B2
:1014D0006034012B05D1002184F86014204600F00F
:1014E0007BFA204600F079FF2268B2F8443023F4FA
:1014F00080531B041B0CA2F84430206800F034FD1C
:1015000005051BD52068B0F8403043F00803A0F86B
:101510004030B0F8443023F400631B041B0CA0F8E7
:101520004430B0F8403043F00403A0F8403000F0FD
:101530001BFDC00402D4204600F04EFF206800F0DE
:1015400013FD010626D52368B3F8442022F080025B
:101550001204120CA3F8442094F86024002A40F0EE
:101560008A81B3F8402042F00402A3F84020B3F887
:10157000402042F00802A3F84020B3F854309B0802
:10158000012103F03C0384F86014C4F8643420465D
:1015900000F022FA206800F0E7FC82050BD52268F3
:1015A000B2F8443023F400731B041B0CA2F844303F
:1015B000204600F000FF206800F0D6FCC30508D5E7
:1015C0002268B2F8443023F480731B041B0CA2F889
:1015D0004430BDE8F88FB0F8441089B211F00F071D
:1015E00040F0A18011F01001038827D10AEA03031B
:1015F0000380B0F8502094F8283000F202401044E4
:10160000E26B30F83330C3F3090363641344E363DC
:10161000204600F0C9FE94F82430002B3FF40AAFB6
:10162000226C002A7FF406AF94F82430216843F03E
:101630008003A1F84C3084F82420FBE69BB21A0505
:101640001DD5B0F8501094F8282200F206430B4440
:1016500004F5866133F83230B4F82E22C3F309035F
:10166000C4F8443200F062FD2268138823F070034E
:101670001B051B0D1380204600F07EFEDAE61F04DA
:101680007FF5D8AE038823F070031B051B0D038084
:10169000B0F8501094F8282200F206430B4433F8B7
:1016A0003230C3F30903C4F8443263B1B4F82E22D4
:1016B000D4F83C1200F03AFDD4F83C32D4F844227D
:1016C0001344C4F83C320021204600F05BFE22683F
:1016D000D4F83832B2F8501002F2064589B253B944
:1016E0006B5A23F440639B049B0C6FEA43436FEAFD
:1016F00053436B5207E03D2B10D85808DE0748BF14
:1017000001308002685213880BEA030383F44053CC
:1017100043F4004343F0800313808BE658485B0991
:1017200040EA8323E5E73EB230F826901FFA89F9B4
:1017300019F4004F3DD030F8263023F070031B051C
:101740001B0D4FEA471820F8263004EB080191F8EA
:101750003432002B53D1B0F8505091F8282200F2C7
:1017600006432B4433F83250C5F3090535B1B1F8BF
:101770002E22D1F83C122B4600F0D8FC04EB461385
:1017800004EB0801D3F844222A44C3F84422D1F8D8
:101790003C222A44C1F83C22D3F840321BB1D1F894
:1017A000380285425ED2A044204698F8281200F004
:1017B000E9FD19F0800F3FF43DAE236833F8262091
:1017C0000AEA020223F8262004EB4717B3F8501068
:1017D00097F8282003F202430B4404EB461633F833
:1017E0003220C2F309027264FB6B97F828101A4486
:1017F000FA63336C2046DBBB00F0D6FD1AE691F8A5
:10180000283230F82350DA00B0F850306D04034429
:1018100013441DD5B3F80254C5F3090535B1B1F829
:1018200030222B46D1F83C1200F080FC04EB080378
:10183000226893F8281232F8213023F4E04323F091
:10184000700343F4004343F0C00322F8213095E7CE
:10185000B3F80654C5F30905002DE7D02B46B1F8BF
:101860003222DFE791F828122046FFF7A7FDA0E714
:10187000FFF7BDFDDEE5204600F0AEFD8AE600BFC5
:101880000080FFFF0F8FFFFF8FBFFFFF38B543685A
:1018900001F00F059D4204462DD811F0800F4FF046
:1018A00020031ED000EB451203FB05030121283362
:1018B00082F8291001229A701D7094F82814914220
:1018C0001BD084F828241946206800F0DDFA25B9D9
:1018D00004F58661206800F04AFB002084F82804A3
:1018E00038BD03FB010300EB4111002203F50A732D
:1018F00081F82922DEE70120F2E70220F0E738B57F
:10190000044601F00F006368984224D8430111F0A7
:10191000800F1A4617D0224403F1280101232144E5
:1019200082F8293000258D70087094F82834012B36
:1019300013D0012384F82834206800F0C1FA84F819
:101940002854284638BD224403F50A710023214457
:1019500082F82932E6E70120F4E70220F2E711F0ED
:10196000800F1BBF01F00F0100EB411000EB411095
:10197000283008BF00F50A7099B21AB90273C18005
:1019800000207047012202738360F9E70368012297
:10199000C0F86C24B3F8582042F00102A3F8582094
:1019A000B3F8582042F00202A3F8582000207047F4
:1019B000036802460121C0F86814002082F8600420
:1019C000B3F854200A43A3F85420B3F8542042F04B
:1019D0000202A3F854207047704784B001A880E841
:1019E0000E0004B000207047B0F8403043F43F438D
:1019F00043F08003A0F8403000207047B0F840303A
:101A000023F47E535B045B0CA0F840300020704749
:101A10000020704784B010B503AC84E80E000022AB
:101A20000123A0F84030BDE81040A0F84020A0F805
:101A30004420A0F85020B0F8403043F43F4343F036
:101A40008003A0F8403004B010467047F0B50C7821
:101A500030F824200346C87822F4EC4222F07002C9
:101A600003284CD8DFE800F00248044542F4007235
:101A7000002023F824200E789D4C35B233F8252021
:101A80002240324342F4004242F0800223F82520F3
:101A90000D7B0A78002D7CD1CE884F7876080825FA
:101AA000760015FB023267B3B3F850502A44A2F80F
:101AB00000640D7833F82520560608D533F8252024
:101AC000144044F4004444F0C00423F82540CA788C
:101AD0000C78012A33F82410864A02EA010218BF62
:101AE00082F0200242F4004242F0800223F82420D7
:101AF000F0BD42F4C062BBE742F48062B8E7012067
:101B0000B7E7B3F8504022440C69A2F804640A789D
:101B1000B3F8506015FB0232B6B202F2064254B975
:101B2000945B24F44064A404A40C6FEA44446FEA78
:101B30005444945307E03D2C26D86508E40748BF79
:101B40000135AD0295530C7833F8242052040BD59F
:101B500033F8242022F4E04222F0700242F44042A2
:101B600042F0800223F82420097833F8212022F45F
:101B7000804222F0700282F4405242F4004242F06D
:101B8000800223F82120B3E75B4D640945EA8424F1
:101B9000CFE712B233F82250254045F4014545F015
:101BA000800523F822500D78B3F85060082212FB0C
:101BB000053535440E8926F00106A5F800640E7837
:101BC000B3F8505012FB06322A444D8925F0010526
:101BD000A2F804540A784D7812B2002D43D133F89C
:101BE00022506F0408D533F822502C4044F440446E
:101BF00044F0800423F822400C7833F82420560661
:101C00000BD533F8242022F4E04222F0700242F493
:101C1000004242F0C00223F824200C7833F824203C
:101C200022F4E04222F0700242F4004242F0C0028C
:101C300023F824200D7833F8252022F4804222F066
:101C4000700248F2800482F44052224323F8252097
:101C5000097833F8212022F4E04222F040021443B4
:101C600023F8214044E733F822506D0408D533F8B7
:101C700022502C4044F4404444F0800423F8224095
:101C80000C7833F8242052060BD533F8242022F4A4
:101C9000E04222F0700242F4004242F0C00223F817
:101CA00024200C7833F8242022F4E04222F0700241
:101CB00042F4404242F0800223F824200C78CA7893
:101CC00024B2012A33F824500A4A02EA050218BF56
:101CD00082F0200242F4004242F0800223F82420E5
:101CE000097833F8212022F4804222F0700244E780
:101CF0008F8FFFFFBF8FFFFF0080FFFF10B50C7BB2
:101D00004A780B78BCBBF2B130F8232052060BD5D1
:101D100030F8232022F4E04222F0700242F4004224
:101D200042F0C00220F823200A7830F8223023F451
:101D3000E04323F0400343F4004343F0800320F8E2
:101D40002230002010BD30F8232054040BD530F889
:101D5000232022F4E04222F0700242F4404242F09A
:101D6000800220F823200A7830F8223023F48043C0
:101D700023F07003DFE7002A44D130F82320520417
:101D80000BD530F8232022F4E04222F0700242F416
:101D9000404242F0800220F823200A7830F82230B6
:101DA0005C060BD530F8223023F4E04323F07003B7
:101DB00043F4004343F0C00320F822300A7830F89F
:101DC000223023F4E04323F0700343F4004343F054
:101DD000C00320F822300C7830F8243023F48043FC
:101DE00023F0700348F28002134320F8243009786E
:101DF00030F8213023F4E04323F040031A4320F865
:101E000021209EE730F8232052040BD530F8232000
:101E100022F4E04222F0700242F4404242F080029A
:101E200020F823200A7830F822305B060BD530F8F2
:101E3000223023F4E04323F0700343F4004343F0E3
:101E4000C00320F822300A7830F8223023F4E0432F
:101E500023F0700343F4404343F0800320F8223022
:101E60000C7830F8243023F4E04323F0400348F2A8
:101E70008002134320F82430097830F8213023F40D
:101E8000804323F07003B9E74B780A787BB130F8D0
:101E9000223023F4E04323F0400383F0100343F4A3
:101EA000004343F0800320F822300020704730F8D0
:101EB000223023F4804323F0700383F48053EEE751
:101EC0004B780A7803B330F822305B060BD530F834
:101ED000223023F4E04323F0700343F4004343F043
:101EE000C00320F822300A7830F8223023F4E0438F
:101EF00023F0400383F0300343F4004343F08003B6
:101F000020F822300020704730F822305B040BD5D7
:101F100030F8223023F4E04323F0700343F44043CD
:101F200043F0800320F822300A7830F8223023F47E
:101F3000804323F0700383F44053DDE711B980231D
:101F4000A0F84C3000207047B0F8583043F40043FC
:101F5000A0F8583000207047B0F85830C3F30E0393
:101F6000A0F8583000207047B0F8440070470020B7
:101F7000704702F58062013302445B0801EB4303C2
:101F8000521A994200D17047088850520231F8E73E
:101F9000F8B5044648788E690A690F7B01280D461A
:101FA00059D196428ABFB11A00211646A961B6B22C
:101FB0006969EFB93346EA882046FFF7DAFFB4F8DB
:101FC00050102A7804F202430B4423F832602A7836
:101FD00034F8223023F4E04323F0400383F030034D
:101FE00043F4004343F0800324F822300020F8BD7E
:101FF0002B7834F82300DA00B4F85030234413442B
:1020000047064BBFA3F80664A3F802646A892A89CD
:1020100033462046FFF7ADFF6A782B786AB91BB2CA
:1020200034F8232022F4E04222F0700242F400420D
:1020300042F0C00224F82320C9E7012AC7D11BB20D
:1020400034F8232022F4E04222F0700242F44042AD
:1020500042F08002EEE796428CBFB11A0021A961DE
:1020600088BF1646297897B9B4F8500004F20642A2
:10207000024402EBC102AEBB138823F440639B040D
:102080009B0C6FEA43436FEA5343138032E088B9F5
:10209000B4F8500004F20242024402EBC102A6B9B5
:1020A000118821F440618904890C6FEA41416FEA8B
:1020B000514111806A7828785ABBB4F8501004F264
:1020C00006420A4402EBC002D5E73D2E05D871084E
:1020D000F00748BF01318902EBE71348710940EA74
:1020E0008121E6E73D2E0FD87108F30748BF013183
:1020F000890211802A7834F8223023F4804323F0B7
:10210000700383F440536BE7074B710943EA812363
:10211000BBE7012A01BFB4F8502004F20641891838
:1021200021F83060E6E700BF0080FFFF02F5806223
:10213000F0B510445D080C462E46471A3A19023491
:1021400036B9DB0744BF30F8153001F81530F0BD63
:10215000128804F8022C120A04F8012C013EEDE763
:102160004FF47A73B0FBF3F0034B00220138586050
:102170009A6005221A60704710E000E0014B186079
:10218000704700BF040000202923038000487047E7
:102190007C000020D0F890320020187370470000B7
:1021A0000A230380004870477000002007B5002212
:1021B000ADF806200A78D0F8903212F060021CD0F8
:1021C000202A2DD14A78023A092A29D8DFE802F0DC
:1021D00012092828282828280E058A781A60002045
:1021E00021E00122194600F0D9FCF8E74A88120ADA
:1021F0005A60F4E70122191DF5E74A780B2A0FD837
:10220000DFE802F0060E0E0E0E0E140E0E0E262E37
:1022100090F87432032B03D102220DF10601E2E79C
:1022200000F095FC022003B05DF804FB4B881B0A0C
:10223000222B05D1CA880E49222A28BF2222D2E7A2
:10224000212BEDD1CA880B49092A28BF0922CAE7E8
:1022500090F87422032AE3D1012203F10801C2E7B6
:1022600090F87422032ADBD18A789A60B7E700BF1E
:10227000080000206400002010B58121044600F011
:102280001CF90121204600F018F90020E062C4F892
:10229000580110BD10B5402304460322812100F0EF
:1022A00002F9402303220121204600F0FCF801211D
:1022B000074BE162C4F85811C4F8903200241C7333
:1022C000044A0548402300F02BF9204610BD00BF0A
:1022D000201B0020E01A0020503A0020D0F8903255
:1022E000002018737047000070B5094C4025204647
:1022F000FEF79AFC2A460021204602F029F92B46D7
:10230000224601210348BDE8704000F009B900BF32
:10231000E01A0020503A0020144A936D43F0806385
:1023200093658369012B01BFA2F58632136843F4DC
:10233000802313600E4BDA68C2F30222C2F1070158
:10234000131D042928BF0421062B4FF0FF3303FA85
:1023500001F38CBF033A0022DB4393401B01054A83
:10236000DBB282F8433308239360704700100240C9
:1023700000ED00E000E100E000F58661D0F87004B7
:1023800000F008B900EB411310B5D3F83C22D0F8A7
:1023900070040C4600F02BF9012C04D12046BDE856
:1023A0001040FFF7A1BF10BD00EB4113D0F870043F
:1023B000DA6B00F052B9D0F8700400F0D4B910B55F
:1023C00004460121D0F8700400F0CAF9D4F8700472
:1023D000BDE8104000F09DB9704770472A4A536825
:1023E00043F4806310B553600446284A2848082304
:1023F000C0E90023C0F8704400230222C4F8980208
:10240000C0E90223C0E90423C0E906330362FEF7F2
:10241000DEFE18B1F7211F48FEF705FC0022114629
:102420001823D4F89802FFF79AFA58230022802143
:10243000D4F89802FFF793FA982300220121D4F8E8
:102440009802FFF78CFAD82300228121D4F8980251
:10245000FFF785FA4FF48C7300220221D4F898021A
:10246000FFF77DFA4FF4AC7300228221D4F8980272
:10247000FFF775FA4FF4CC7300228321D4F8980249
:10248000FFF76DFA002010BD0070004000680040AA
:10249000EC3C0020CC45000808B5D0F89802FEF7C7
:1024A00008FF002008BD10B51C46D0F8980213465E
:1024B0002246FEF727FF002010BD08B5D0F898028D
:1024C000FEF753FF002008BD08B5D0F89802FFF7CB
:1024D000DDF9002008BD08B5D0F89802FFF70FFA23
:1024E000002008BD0A06D0F8983245BF01F07F01F0
:1024F00003EB411303EB411393F82A0058BF93F801
:102500002A02704708B5D0F89802FEF7E7FE0020CF
:1025100008BD08B5D0F89802FEF769FF002008BD95
:1025200008B5D0F89802FEF749FF002008BD08B5AD
:1025300080B1D0F88C3213B10023C0F88C3209B1CD
:10254000C0F88812012380F874320270FFF746FF4A
:10255000002008BD0220FCE719B1C0F88C12002051
:1025600070470220704708B5FFF796FF002008BDAE
:1025700008B5D0F88C320BB9022008BD1B6898470B
:102580000028FAD0F8E708B5D0F88C325B68984795
:10259000002008BD38B5044600F52075284600F037
:1025A000C2FA012394F88012C4F86C32B4F886326F
:1025B000C4F8703201F01F03012B0ED03BB1022B87
:1025C00010D001F080012046FFF77EFF03E029468E
:1025D000204600F0DFF8002038BD2946204600F0F4
:1025E000F5F9F8E72946204600F015FAF3E770B54B
:1025F0000546164629BBD0F86C32032B1CD1D0E916
:10260000533293420BD99B1A9A42C0F84C318CBF7B
:102610009AB292B2314600F0D6FA002070BDD0F8DE
:102620008C321B6923B190F87422032A00D1984799
:10263000284600F0D0FAF0E7052BEED1FFF744FF73
:10264000EBE7D0F88C329B692BB190F87422032A07
:1026500001D19847E1E70220E0E770B51346044650
:102660000E46002948D1D0F86C22022A3DD1D0E98B
:102670000852954214D9AA1A0262194692B200F081
:102680009AFA33461A4619462046FFF749FF94F84E
:102690007832012B4FF0000001D184F8780270BD30
:1026A000C369B3FBF2F502FB153565B99A420AD846
:1026B000D0F87022934206D22A4600F07CFAC4F881
:1026C00070522B46DEE7D4F88C32DB682BB194F8DD
:1026D0007422032A01D12046984780212046FFF723
:1026E000F3FE204600F082FAD1E732F00403CED1A7
:1026F0008021FFF7E9FECAE7D0F88C325B6933B17D
:1027000090F87422032A02D198470020C7E70220DC
:10271000C5E770B500220446114601254026402336
:10272000FFF7C1FE33468021C4F84451C4F850611C
:1027300000222046FFF7B7FED4F89032A5610021B1
:10274000666284F87452C4F86C126160C4F87C123A
:1027500023B1D4F88C3220465B689847002070BDC6
:1027600001740020704708B590F87422032A04D140
:10277000D0F88C32DB6903B19847002008BD10B552
:1027800080210446FFF7A0FE20460021BDE810404E
:10279000FFF79ABE37B50B7803F06003202B044691
:1027A0000D4614D0402B12D0002B40F08E804B7879
:1027B000092B00F28A80DFE813F0E300FC008800B8
:1027C000F50088007D0013008800CE009B00D4F83F
:1027D0008C3229469B6820469847002003B030BDC4
:1027E0004B881A0A013A062A6FD8DFE802F004166D
:1027F000236E6E434C00D0F888321B68207C0DF1AC
:1028000006019847BDF80620002A4FD0EB88002B20
:1028100043D1204600F0DFF9DFE7027CD0F88C32AC
:1028200032B99B6A0DF10600984702234370E9E72D
:10283000DB6AF7E7DBB2052B47D8DFE803F00307D5
:102840000B0F1317D0F888325B68D7E7D0F88832BF
:102850009B68D3E7D0F88832DB68CFE7D0F88832BE
:102860001B69CBE7D0F888325B69C7E7D0F88832BC
:102870009B69C3E7037C43BBD0F88C320DF10600A3
:102880005B6B9847BEE7037CFBB9D0F88C320DF147
:1028900006001B6B98470723C8E79A4228BF1A46D1
:1028A00001462046ADF8062000F078F9EB88002BB1
:1028B00093D1AEE78B8843B9CB8833B94D887F2D50
:1028C00003D890F87432032B03D12046FFF757FF4B
:1028D00083E7E9B280F87612FFF714FE204600F095
:1028E0007AF91DB1022384F8743276E70123FAE7FE
:1028F0008978354D01292970E7D890F87432022B78
:1029000008D0032B15D0FFF73AFF29782046FFF7B0
:102910003AFE62E700293FF47CAF012103234160C6
:1029200080F874322046FFF723FE02287FF471AF4F
:10293000CBE731B9022380F874324160FFF723FE00
:1029400067E7416801293FF464AFC9B2FFF71BFE96
:1029500029786160E6E7CA88012AB6D190F8743216
:10296000002BB2D0022B03D9032BAED1011D03E003
:102970000146002341F8083F204600F00FF92CE7FC
:1029800090F87432013B022B9FD8CA88022A9CD14E
:10299000D0F87C320146002B14BF1346002341F8C7
:1029A0000C3FE9E74B88012B7FF417AFC4F87C326A
:1029B0002FE790F87432013B022B86D84B88012B0D
:1029C0007FF40BAF0023F1E7301B002038B50B7804
:1029D00003F06003202B04460D4602D0402B00D0AC
:1029E000ABB994F87432013B022B10D82B79012B30
:1029F0000DD8D4F88C3229469B6820469847EB883E
:102A00001BB910B9204600F0E6F8002038BD20467A
:102A1000FFF7B5FEF9E738B50A7802F06002202A20
:102A200004460B4615D0402A13D072B95A788D88C7
:102A3000012AE9B221D0002A36D0032A05D190F824
:102A40007422022A27D0032A0BD02046FFF797FED4
:102A500005E0D4F88C221946926820469047002061
:102A600038BD5A882AB94A0603D0DB880BB9FFF76C
:102A70002BFD204600F0AFF8F1E790F87422022A0F
:102A800009D0032AE1D15B88002BE8D14D06F0D0B4
:102A9000FFF721FDEDE74B06D7D0FFF715FD8021AD
:102AA0002046FFF711FDDAE790F87432022B18D0B8
:102AB000032BCAD101F00F02142315F0800F03FB82
:102AC00002021DD09269002ABFD001F07F0505FBEC
:102AD0000335054411F07F031DD12B6002222946E6
:102AE0000AE04A06B1D12B064CBF00F1140100F5F3
:102AF000A07100230B600222204600F04FF8AEE7E1
:102B0000D2F84421002AA0D001F07F0503FB05057F
:102B100005F5A075DEE72046FFF7E4FC08B10123C8
:102B2000DBE72860DAE70B7803704B784370CA78EC
:102B30008B7803EB022343804A790B7903EB022362
:102B40008380CA798B7903EB0223C380704710B569
:102B500080210446FFF7B8FC20460021BDE8104064
:102B6000FFF7B2BC30B578B1002301385D1C445D7D
:102B70005CB9DBB201335B0013800B7003234B7035
:102B8000022310F8015F15B930BD2B46EEE75A1C41
:102B9000D2B2CD540233DBB28C54F2E710B51346F7
:102BA0000222C0F86C22C0E907330A460021FFF771
:102BB000B0FC002010BD08B513460A460021FFF7FF
:102BC000A8FC002008BD08B513460A460021FFF7FF
:102BD000A7FC002008BD08B50423C0F86C32002310
:102BE0001A461946FFF795FC002008BD08B50523D5
:102BF000C0F86C3200231A461946FFF791FC0020FA
:102C000008BD000012230B8000487047E145000812
:102C100004230B80004870471346000810B5044C8D
:102C200004480A462146FFF79DFF204610BD00BF1D
:102C300060410020FD45000810B5044C04480A46D8
:102C40002146FFF78FFF204610BD00BF60410020E6
:102C5000F345000810B5044C04480A462146FFF726
:102C600081FF204610BD00BF6041002002460008E1
:102C70000C4B70B51C6841F2020604F58052A35B50
:102C800012880D465918914202DD012001F000FC26
:102C90002A460146E01801F041FCA35B1D44A55300
:102CA000002070BD341B0020F7B5144D86792960D3
:102CB000017847790379D1B9190441EA07213143F1
:102CC00000F0B6F884B2B4F5104F12D1230A0121F6
:102CD0000DF107008DF80730FFF7CAFF01210DF154
:102CE00007008DF80740FFF7C3FF03B0F0BD4FF4B6
:102CF000DC44286800F09CFBE8E700BF341B0020A0
:102D0000014B186800F094BB341B0020014B186085
:102D1000704700BF341B002007B5084B18689A881D
:102D200000909B79ADF80420062168468DF80630A6
:102D3000FFF79EFF024803B05DF804FB174600084A
:102D40000090FFFF172908B508DD0422044910444C
:102D500001F0D6FBB0FA80F0400908BD0020FCE786
:102D60001E4600082DE9F0431D4695B001238DF85D
:102D700003302B78103B4FF00008012B16468DF8DE
:102D800002804ED84046FDF7CBFE81464046FDF717
:102D9000C7FE07464046FDF7C3FE04464046FDF722
:102DA000BFFE3F02000E40EA096007F47F07240AD5
:102DB000384304F47F442043019001210DF10300C6
:102DC000FFF756FF04210DEB0100FFF751FF012132
:102DD0000DF10200FFF74CFF29463046FDF7A6FA39
:102DE00040B28DF80200C0B1FFF78AFF01210DF15A
:102DF0000300FFF73DFF04210DEB0100FFF738FF53
:102E00000021482202A801F0A3FB9DF802308DF8B2
:102E10000830482102A8FFF72BFF044815B0BDE891
:102E2000F0834FF020630193C7E700BF0090FFFFDE
:102E30002DE9F0414378022B04461FD190F847500A
:102E400000F14806C71D29463046FFF77BFFA378EF
:102E5000072B09D146F6851346F68412002814BFC5
:102E600018461046BDE8F08178B133462A4604F191
:102E700027013846BDE8F041FFF774BF032B07D1A7
:102E800049B9BDE8F041FFF747BF4FF4D540E9E746
:102E90004FF4DA40E6E74FF4CE40E3E7094A30B5B5
:102EA0000023182404FB03F18D58854203D10A4402
:102EB0000020107430BD0133092BF3D14FF0FF30E7
:102EC000F8E700BF381B0020044A00231380044A9F
:102ED0001360044A1360044A13607047E23900200B
:102EE000EC390020F0390020E4390020044B188828
:102EF00028B1044B1B6898420CBF02200120704788
:102F0000E2390020EC3900200C4A38B51146002384
:102F1000147C5CB918225343CD18C85001232B747C
:102F2000FDF768FDC5E90204204638BD0133092BD1
:102F300002F11802ECD14FF0FF30F6E7381B002009
:102F400038B50C4C0022182303FB02F529598142A5
:102F500009D1FDF74FFD631900220121C3E90202E7
:102F60001974104638BD0132092AEDD14FF0FF30F7
:102F7000F8E700BF381B00202DE9F84304460D4652
:102F80008E1804274FF005084FF00709B54201D10C
:102F9000BDE8F883D4E903235AB96268C4F8152060
:102FA000E760C3B921892278627649BA6183C4F89F
:102FB0000C90E1684A1CE260214415F8010B487549
:102FC0000133402A2361E1D104F11500FDF7A6FD8C
:102FD0000023E360DAE7227D6276511C2175C4F894
:102FE0000C80E6E7C36810B55BB903694BB9436869
:102FF000C0F815300378437603895BBA438307230F
:10300000C360C368002B0CDD00F11504E018C3F1A8
:103010004002002101F09CFA2046BDE81040FDF777
:103020007DBD10BD10B598B004468DF8071058222C
:10303000002102A801F08CFABF2301220DF1070143
:1030400002A88DF80830ADF810200394FFF794FF24
:1030500002A8FFF7C7FF18B010BDFFF735BF00008B
:103060002DE9F04DDFF85C80154D002440F2ED2A8B
:103070004FF0000B98F81030D3B1FDF7BBFCD8E946
:1030800002320021C61A61EB0207BB4508BFB245F8
:103090000ED20521D8F80000FFF7C4FF002388F8FE
:1030A0001030D8F800202B689A4201D1FFF70CFFAE
:1030B00001340A2C08F11808DCD1BDE8F08D00BFFE
:1030C000E4390020381B002000B599B058228DF853
:1030D0000700002102A801F03BFA0A4B1B6803938A
:1030E0000122BB230DF1070102A88DF80830ADF8CD
:1030F0001020FFF741FF02A8FFF774FF19B05DF839
:1031000004FB00BFE43900202DE9F0430279056893
:10311000ADF5815D862A81B004465ED1B0F80530F8
:10312000B3F5006F40F08B80002D00F06B81FFF74E
:1031300094FF0768781C1CD1B34B1E680136721EC1
:10314000033206F1010112D830461E60FFF7DCFEA3
:1031500001301ED106242846FFF7A0FE042C01D121
:10316000FFF7B2FE21462846FFF75CFF33E00E462C
:10317000E5E7A64A0023182101FB03F080588742A7
:1031800000F028810133092BF6D13846FFF7BCFE49
:1031900023E15822002107A801F0DAF954F8070FBB
:1031A0000897862361688DF81C3002AB019303C336
:1031B000019B01999E6002231122CB6007A8052381
:1031C000ADF824200B74FFF7D7FE07A8FFF70AFF1E
:1031D0003046FFF763FE0024F6E0691C00F0128120
:1031E0008A49002318200E4600FB03F77F58BD4292
:1031F0000AD00133092BF7D1130605D5FFF776FE68
:1032000010B92846FFF780FE21680023182202FB30
:1032100003F03058814200F0E2800133092BF6D1EF
:1032200094F90430002BD6DA94E7002B09DAB4F8CD
:1032300005305BBA9AB241F6B950824220D90324D4
:1032400089E70028C7D0724B1B689942C3D1714BE4
:10325000714AB3F800801368704F013363453E68CC
:10326000136040F0CD80A8EB06026D483B2A304445
:1032700004F1050120DC01F051F9C7F8008013E0EA
:1032800064480380674B6648C3F800C0604B392A26
:103290001960624B28BF39221A605F4B4FF0FF3133
:1032A0001960E11D01F03AF92068FFF749FE074671
:1032B00040B1012001F0ECF83B223B3601F02EF941
:1032C0003E60F1E7534B1E88564B1C78FFF70EFE0D
:1032D000042880D003283FF43EAF012802D1FDF737
:1032E00089FB78E7862CE4D006D8832C37D00121DF
:1032F0002846FFF797FE5DE0912CDFF830812BD058
:10330000D02CF4D107A800F093F807A8FFF7FEFC33
:1033100043493046FDF70AF8434E88F8000058222A
:103320003946304601F014F90DF580531E33012261
:103330001B88756001334146304633813470FFF796
:103340001BFE0DF580531E3330461A8807A9FFF780
:1033500013FE3046FFF746FE88F800702AE00EB9EB
:10336000032100E7DFF8C48098F80090B9F1000F5E
:1033700001D00621F7E601232B4E88F8003007A87C
:1033800000F056F808AF07A92548FFF78DFC582232
:103390004946304601F0DCF8B7F8FE2F328107A924
:1033A000304675603470FFF7E7FD3046FFF71AFED0
:1033B00088F800902846FFF771FDFFF785FD1B4B4D
:1033C0001B78002B7FF407AF20460DF5815D01B01F
:1033D000BDE8F0833846FFF7B3FD3E46B8E6FFF799
:1033E00085FD94F804C001284FFA8CF37FF41DAFDB
:1033F000074A126891427FF415AF002BBFF623AF46
:103400000424A8E60B24A6E6C4000020381B0020F4
:10341000E4390020E2390020F0390020EC390020A6
:10342000281C0020E8390020F8390020F439002059
:1034300008B541F20402002101F08AF800F580533A
:103440004FF480521A8008BD2DE9F04FC9B008AA88
:1034500001F1400514464B780E781B0443EA0663DD
:10346000CE7833438E78043143EA06238D4244F804
:10347000043BF0D11024916B16464FEAF14383EAE6
:10348000714383EA9123716A366852F8045F3144CC
:103490000B444FEAB54181EAF51181EAD5010134C7
:1034A0000B44402CD363E6D1D0E914E30093836D41
:1034B0000193C36D0293036E0393436E0493836E73
:1034C0000593C36E0693DDE9057BDDE9031CDDE9A9
:1034D00001592B4B009E079374464FF00008079B41
:1034E00053F8042B07934FEAF12383EAB11383EADD
:1034F000716A08AB53F828301A440AEB020327EA32
:10350000010A01EA0C028AEA02021A444FEA743AFA
:1035100086EA05035A448AEAB40A06EA050B234000
:1035200083EA0B038AEAB45A08F101089A44B8F115
:10353000400F02EB0903BB465244A94619D172441D
:103540000265009A22444265019A32448265029AD9
:103550002A44C265039A1A44049B02660B444366DC
:10356000059B63448366069B3B44C36649B0BDE844
:10357000F08F674635468C46264619461446AEE718
:10358000244600080023002203640023C0E912231C
:103590000B4B0C4A0C49DFF840C0C0E914230B4B1D
:1035A000C0E916130A4BC0E918C30A4B836603F13E
:1035B0007453A3F52303A3F69243C366704700BF79
:1035C00085AE67BB67E6096A72F36E3C3AF54FA5B4
:1035D0008C68059BABD9831F7F520E51F8B504460A
:1035E0000D468E180027B54200D1F8BD236C15F8A2
:1035F000012BE2540133402B2364F4D121462046B1
:10360000FFF722FFD4E9123113F5007341F10001F5
:10361000C4E912312764E6E7026C2DE93048372A05
:103620000D464FF0800102F10103815404464FF032
:10363000000246D8382B3FD1236CD900D4E912239D
:1036400012EB010B43F1000C9BFA8BF2E2634FEAA1
:103650001C224FEA1C6384F83A204FEA1C4284F88B
:1036600038302146C4E912BC84F83BC084F83920C4
:103670002046FFF7E9FE691E1823226DDA4001F8A3
:10368000012F626DDA400A71A26DDA400A72E26DB2
:10369000DA400A73226EDA400A74626EDA400A7502
:1036A000A26EDA400A76E26EDA40083B13F1080FA8
:1036B0000A77E2D1BDE83088E2540133BAE7E25438
:1036C00001333F2BFBD921462046FFF7BDFE3822B0
:1036D000002100F03DFFAFE7000000000000000007
:1036E000C3F10803DB0070B50133002403A500BF5C
:1036F0005B1920C940CAAD1920C0184720C940CA6B
:10370000754120C020C940CA754120C020C940CAA7
:10371000754120C020C940CA754120C020C940CA97
:10372000754120C020C940CA754120C020C940CA87
:10373000754120C06441204670BD00BF00000000FC
:10374000C3F10803DB0070B50133002403A500BFFB
:103750005B1920C940CAAD1B20C0184720C940CA08
:10376000B54120C020C940CAB54120C020C940CAC7
:10377000B54120C020C940CAB54120C020C940CAB7
:10378000B54120C020C940CAB54120C020C940CAA7
:10379000B54120C06441B4FA84F0400970BD00BF57
:1037A0002DE9F041013B00249B0025462646A44616
:1037B0005FF0000E03E05FEA0C0EBEEB030EBCEB05
:1037C0000E0752F8078051F80E70A7FB0878E4192D
:1037D00055EB080556F100061EF1040E9E4501DC6E
:1037E000E645ECDD40F80C402C46354600261CF141
:1037F000040C9C45DCDDBCEB430FDCDD40F80C40E9
:10380000BDE8F081002310B51C465AB2914200DC9D
:1038100010BD40F823400133F7E710B500231A46E6
:103820005CB2A14203DCB2FA82F0400910BD50F84C
:10383000234001332243F3E74A11012350F82200C9
:1038400001F01F0103FA01F108407047013910B57A
:1038500049B2041D0A06CBB204D4013954F8212020
:10386000002AF7D001335BB273B103F18042013A11
:1038700050F82220002022B9013B00EB431318B27C
:1038800010BD52080130F6E71846F9E710B50023DD
:103890005CB2A24200DC10BD51F8234040F8234046
:1038A0000133F5E710B5013A52B2130601D50020F5
:1038B00010BD50F8224051F822309C4205D802F148
:1038C000FF32F2D24FF0FF30F2E70120F0E700EBD9
:1038D00081010023884200D3704751F8042D43EA48
:1038E00052030B60D307F5E770B59DF910401E46F3
:1038F00023460546FFF7F4FE30B9224629463046F6
:10390000FFF7D0FF012807D0234632462946284634
:10391000BDE87040FFF714BF70BD70B59DF9104051
:103920001E4623460546FFF70BFF38B123463246B5
:1039300029462846BDE87040FFF7D2BE70BD2DE98C
:10394000F04FB5B004AC9DF9F8501F4681462B46A8
:103950002046FFF725FF24AB29463846CDE902343F
:10396000FFF774FFC0EB851004B2002C2646B8BFE9
:1039700004F11F06634246F3471603F01F0304F0E9
:103980001F0814A858BFC3F100083146FFF73AFFDB
:10399000B8F1000F30B22DDD14AB002203EB800034
:1039A000C8F1200C1346AB4219D32FB27B00019310
:1039B00014AB03EB870705F1FF3834AB012603EBAB
:1039C0008808002C54DA34AB03EB86062A4656F8F6
:1039D000C81C4846FFF75AFF35B0BDE8F08F57F8CE
:1039E000236006FA08F10A4340F8042B013326FA53
:1039F0000CF2D8E714AB2A46394603EB8000FFF7F8
:103A000045FFD2E70FFA82FE5AF8C83C53F82EB0B1
:103A100034AB03EB8202013052F8803C0B44BBEB29
:103A2000030334BF012200229B4518BF11465CF8F6
:103A3000C82C42F82E30019B42B29A42E2DB731A44
:103A40005E42294614A85E41FFF741FF34AB03EB09
:103A50008503294653F8802C58F8803C384643EAC1
:103A6000C273013C48F8803C24B2FFF730FFA8E75E
:103A700034AB0020C6F1010C014603EB860A03EBD0
:103A80008C0CD8E730B51C4691B0054693F9003050
:103A90006846FFF785FED4F8B03069462846984757
:103AA00011B030BD13460A46FFF7ECBF2DE9F047D1
:103AB00093F9006092B00446894610463146154697
:103AC0009846FFF7AAFE002840F0918042464946FA
:103AD00002A8FFF7E7FF434602AA21460AA8FFF71C
:103AE000D1FF02A908464246FFF7DCFF43462A46BB
:103AF00049464846FFF7C6FF08F1040742462946F3
:103B00002846FFF7CFFF3B462A462146204600962F
:103B1000FFF7EAFE3B462A46294628460096FFF76D
:103B2000E3FE3B462A46214628460096FFF7F5FE6F
:103B300043462A4621462046FFF7A4FF3B4622463D
:103B4000214628460096FFF7CFFE3B4600962A46C0
:103B500021462046FFF7C8FE2368DB074AD53346D7
:103B60003A4621462046FFF7BBFD314682462046B5
:103B7000FFF7ADFE06F18043013B54F8230040EA15
:103B8000CA7044F82300424621462846FFF78AFFC0
:103B90003B460AAA294628460096FFF7BEFE3B464A
:103BA0000AAA294628460096FFF7B7FE0AA9084642
:103BB0003B462A460096FFF7B0FE43460AAA214636
:103BC0002046FFF75FFF02AA3B46104621460096BB
:103BD000FFF7A3FE324629462046FFF757FE494627
:103BE0002846FFF753FE02A94846FFF74FFE12B0E2
:103BF000BDE8F08731462046FFF769FEC3E72DE9AF
:103C0000F04115468AB0044688461C22002103A8CC
:103C100000F09EFC2E1D95F9007003232A464146B4
:103C200020460293FFF73EFF334602AA2146204674
:103C30000097FFF772FE2B46424621462046FFF7CB
:103C400021FF0097334605F1840221462046FFF705
:103C50004BFE0AB0BDE8F081F0B591B00E461C22D3
:103C60000021074601A800F073FC01241C2200215A
:103C700009A8009400F06CFC31466A4611F9045B17
:103C800008942B466846FFF72BFD29466846FFF748
:103C9000DDFD013804B2012C06DC2A4608A93846AD
:103CA000FFF7F4FD11B0F0BD08A908463246FFF752
:103CB000F9FE21466846FFF7BFFD28B108A9334643
:103CC0003A460846FFF7DEFE013C24B2E3E7000077
:103CD000F0B5082289B00C460646FFF7D7FDCB6A3F
:103CE00003930B6B04934B6B05938B6B0693CB6B1E
:103CF0000793002708236A4669466846CDE901779D
:103D00000097FFF7EDFC082305466A46314630462A
:103D1000FFF7E6FC236B0393636B0493A36B05939C
:103D2000E36B0544CDE906376A46082369466846D1
:103D3000FFF7D6FC082305446A4631463046FFF7B4
:103D4000CFFC236A0093636A0193A36A0293A36B77
:103D50000693E36B0793054408236A4631463046D1
:103D6000CDE904770397FFF7BBFC636A0093A36A6E
:103D7000A26B0193E36A02930492636BE26B039379
:103D8000CDE90523236A0793054408236A46314693
:103D90003046FFF7A5FCE36A0093236B0193636B46
:103DA0000293236A0693A36A0793054408236A468D
:103DB00031463046CDE904770397FFF7C1FC236B0A
:103DC0000093636B0193A36B0293E36B0393636AAA
:103DD0000693E36A07932D1A08236A463146304654
:103DE000CDE90477FFF7ACFC636B0093A36B019301
:103DF000E36B0293236A0393636A0493A36ACDE996
:103E00000537236B07932D1A08236A46314630463F
:103E1000FFF796FCA36B0093E36BCDE90137636A70
:103E20000393A36A0493E36ACDE90537636B0793B1
:103E30002D1A08236A4631463046FFF781FC2D1AB9
:103E40000D4C0FD435B9082231462046FFF72AFD24
:103E500001280FD00823224631463046FFF770FC78
:103E60002D1AEFE70823224631463046FFF738FC8B
:103E70002D18F7D409B0F0BD28470008F0B5154655
:103E800089B01C4607460E461A4629466846FFF783
:103E900009FE23466A4639463846FFF7F3FD2346B6
:103EA0002A4669466846FFF7EDFD23466A463146D5
:103EB0003046FFF7E7FD09B0F0BD2DE9F0438BB0C8
:103EC0001446129D15F9046B00961F4680468946DC
:103ED0002B460246214602A8FFF71FFD02A9129AAF
:103EE0000846FFF7DFFD129B02AA41464046FFF756
:103EF000C9FD129B02AA21462046FFF7C3FD2B46AF
:103F00004A46394638460096FFF707FD129A394669
:103F100002A8FFF7C7FD02A92B46424608460096B5
:103F2000FFF7FBFC02A92B46224608460096FFF746
:103F3000F4FC2B464246214620460096FFF7EDFC56
:103F4000129B224649464846FFF79CFD2B4602AA93
:103F5000414620460096FFF7E0FC129B2246394678
:103F60003846FFF78FFD2B464A46394638460096BD
:103F7000FFF7D3FC324602A92046FFF787FC0BB0BF
:103F8000BDE8F083F8B50E46D11C48BF911D14461C
:103F900041F387010546671EFFF734FC00214AB252
:103FA000A24201F1010100DBF8BDBB1A23F00300BE
:103FB000B25C03F00303DB0002FA03F32A581A434E
:103FC0002A50ECE72DE9F0471F46B3F90230894645
:103FD00013F11F0148BF03F13E014D11D91D48BF28
:103FE00003F10E01CC1094424FFA85F828BF144615
:103FF00041460646FFF706FC22464946FFF7C2FF48
:10400000B7F90220E40094421FD9A41A06EB8501F7
:104010000022C4F120058E420ED324374246314699
:104020003846FFF73FFC01280FD043463A4630465A
:10403000BDE8F047FFF784BB51F8040D20FA04F304
:1040400013430B6000FA05F2E5E7BDE8F08703686B
:1040500070B513F001050646144605D013460A460E
:104060000146FFF73DFB054621463046FFF72FFC92
:1040700045B104F18042013A56F8223043F0004342
:1040800046F8223070BDF0B50F46A1B0064619467D
:10409000384615461C46FFF7C0FB20B13046FFF7F7
:1040A000B1FB21B0F0BD224639466846FFF7EEFB72
:1040B000294608A8FFF7EAFB10A82146FFF7A2FB54
:1040C000012318A81093FFF79DFB224608A9684614
:1040D000FFF7E8FB28B9224610A93046FFF7D6FBC8
:1040E000DFE7009BDA0709D421466846FFF7EFFBBC
:1040F0002246294610A8FFF7AAFFE6E7089BDB0740
:1041000007D4214608A8FFF7E2FB2246294618A853
:10411000F1E7002823461CDD08AA69466846FFF738
:104120000FFB21466846FFF7D2FB224618A910A8CC
:10413000FFF7B8FB002805DA10A923462A460846EF
:10414000FFF7CEFA10A9234618AA0846FFF7F8FA97
:10415000CEE708A96A460846FFF7F2FA214608A802
:10416000FFF7B5FB224610A918A8FFF79BFB002814
:1041700005DA18A923462A460846FFF7B1FA18A916
:10418000234610AA0846FFF7DBFABEE7004870474F
:10419000244700082DE9F04FFDB01D46869E05928C
:1041A000B6F9023096F9004013F11F0748BF03F13A
:1041B0003E0747F3471707F1FF3924AB4FF0000BD9
:1041C00043F829B07CAB03EB8902804642F8C0BCBF
:1041D00042F8A0BC8A4696F9012001466CA8FFF778
:1041E000D1FEA3000793A2006CAB134496F9012003
:1041F0000493184608EB0201FFF7C4FE294696F91E
:1042000001204CA8FFF7BEFE96F9012054A8A9187A
:10421000FFF7B8FE21464CA8FFF7FFFA0546002835
:1042200040F0348154A8FFF7F8FA8346002840F0A4
:104230002B8106F124033A464CA918460393FFF755
:1042400031FB012840F022813A4654A90398FFF738
:1042500029FB0128069040F019811CAD0DF13008B2
:104260003B46039A54A92846FFF70DFF51464046A6
:104270003346059A48F829B0FFF7A4FE4146404668
:10428000039B00972A46FFF75AFB0DF5B879039B6D
:1042900000972A464CA914A8FFF751FB224648462E
:1042A0006CA9FFF7F3FAA30009EB030A504604993F
:1042B000FFF7ECFA06F14403194634A80493FFF71C
:1042C000E5FA049BA10059183CA8FFF7DFFA331D5B
:1042D000494634AA284600940593FFF71EFB53462F
:1042E0004A463CA934A80096FFF7E7FD2346321D55
:1042F00029462846FFF7C7FE2A4651464846334618
:10430000FFF7BCFD049B099339466CAB4046CDE9F1
:104310000A39CDF820B0FFF799FA3946814614A83A
:10432000FFF794FA8145B8BF81461FFA89F909F170
:10433000FF331BB2194640460493FFF77DFA049BF6
:1043400010F10008194614A818BF4FF00108FFF734
:1043500073FA002814BF0223002348EA03080DF172
:10436000200A22465AF8288024A84146FFF78EFAF0
:104370000DF1B00AA30008EB03015046FFF786FADF
:1043800021462846FFF73EFAA9F10208069B2B605A
:104390000FFA88F80DF190090495B8F1000F22DAB0
:1043A000DDE9041223460846FFF76DFE3346049A02
:1043B00051464846FFF762FD3A4649460398FFF7E3
:1043C00071FA012804D03B46039A4846FFF7B8F932
:1043D000013C64B24CAA23064DD5BBFA8BF04009D0
:1043E0007DB0BDE8F08F049AD6F8A450334651460C
:1043F0004846A84741460CA8FFF71EFA031C18BF01
:104400000123414614A80693FFF716FA069B0028DD
:1044100014BF02220022134308AA52F823302BB300
:104420002246194634A80693FFF730FADDE9063133
:104430003CA85918FFF72AFA3346049A3CA934A835
:10444000FFF71CFD059B009434AA494644A8FFF7DA
:1044500064FA53464A463CA934A80096FFF72DFD5E
:104460000499334644AA0846FFF70CFB08F1FF38CD
:104470000FFA88F891E759F8243052F824104B408D
:104480004BEA030B013CA6E72846A9E75846A7E7F5
:1044900008B5074B044613B10021AFF30080054B6C
:1044A0001868836A03B19847204600F059F800BFA6
:1044B00000000000D847000870B50D4D0D4C641B7E
:1044C000A4100026A64209D10B4D0C4C00F04AF86E
:1044D000641BA4100026A64205D170BD55F8043B0C
:1044E00098470136EEE755F8043B98470136F2E766
:1044F0004048000840480008404800084448000878
:1045000030B501390024A24201D1002005E0035D4D
:1045100001340D5DAB42F6D0581B30BD884210B55A
:1045200001EB020302D983421C4607D8421E99427E
:1045300008D011F8014B02F8014FF8E783189A1AD6
:104540009A4200D110BD14F8011D03F8011DF7E7D0
:1045500002440346934200D1704703F8011BF9E778
:10456000FEE700BFF8B500BFF8BC08BC9E46704728
:10457000F8B500BFF8BC08BC9E46704700000000BC
:10458000585B1B46CB57FDE91B88893B6586A045D8
:1045900068452B35BB3D77A45A76B6265F7F8F4C96
:1045A000A962EE6EE0B3275CC535F887D041344888
:1045B000623744205BE57F13CE0742AFA277A38D1D
:1045C000007372632F696E69742E63006C69622FC9
:1045D000757362642F757362645F636F6E662E63BA
:1045E0000012010002000000408304CAA200020180
:1045F000020301536F6C6F204B65797300536F6C2E
:104600006F00303132333435363738394142434424
:10461000454600040309045532465F5632008C2794
:1046200090F60000982F8A4291443771CFFBC0B5B5
:10463000A5DBB5E95BC25639F111F159A4823F926D
:10464000D55E1CAB98AA07D8015B8312BE853124C6
:10465000C37D0C55745DBE72FEB1DE80A706DC9B87
:1046600074F19BC1C1699BE48647BEEFC69DC10F33
:10467000CCA10C246F2CE92DAA84744ADCA9B05C6F
:10468000DA88F97652513E986DC631A8C82703B032
:10469000C77F59BFF30BE0C64791A7D55163CA0640
:1046A00067292914850AB72738211B2EFC6D2C4D4C
:1046B000130D385354730A65BB0A6A762EC9C2813A
:1046C000852C7292A1E8BFA24B661AA8708B4BC2D0
:1046D000A3516CC719E892D1240699D685350EF4FA
:1046E00070A06A1016C1A419086C371E4C774827B1
:1046F000B5BCB034B30C1C394AAAD84E4FCA9C5B27
:10470000F36F2E68EE828F746F63A5781478C88477
:104710000802C78CFAFFBE90EB6C50A4F7A3F9BE59
:10472000F27871C608200001FFFFFFFFFFFFFFFFC7
:10473000FFFFFFFF0000000000000000000000007D
:1047400001000000FFFFFFFF512563FCC2CAB9F35F
:10475000849E17A7ADFAE6BCFFFFFFFFFFFFFFFF38
:1047600000000000FFFFFFFF96C298D84539A1F472
:10477000A033EB2D817D0377F240A463E5E6BCF81E
:1047800047422CE1F2D1176BF551BF376840B6CBE9
:10479000CE5E316B5733CE2B169E0F7C4AEBE78EE5
:1047A0009B7F1AFEE242E34F4B60D2273E3CCE3B5A
:1047B000F6B053CCB0061D65BC86987655BDEBB3FC
:1047C000E7933AAAD835C65AAD3A0008593C0008D2
:1047D000FF3B0008D13C0008C8000020000000009A
:1047E00000000000000000000000000000000000C9
:1047F00000000000000000000000000000000000B9
:1048000000000000000000000000000000000000A8
:104810000000000000000000000000000000000098
:104820000000000000000000000000000000000088
:104830000000000000000000000000000000000078
:10484000B501000800000000910100080000000010
:104850001300000000093D0006D0F10901A1010983
:1048600020150026FF0075089540810209211500DA
:1048700026FF00750895409102C0000095220008AF
:1048800079220008AD2100080000000000000000AF
:1048900095210008DD220008000000000000000053
:1048A00000000000892100088921000889210008F2
:1048B000A1210008092111000001222200000000AE
:1048C0000A06000200000040010000000902290061
:1048D00001010080320904000002030000020921E6
:1048E0001101000122220007058103400005070590
:1048F0000103400005000000052C0008112C0008F1
:10490000392C00081D2C0008552C00080000000060
:10491000000000000100000000000000FC4700084B
:104920001C480008DC4700080000000000000000F0
:104930000000000000000000000000000000000077
:104940000000000000000000000000000000000067
:104950000000000000000000000000000000000057
:104960000000000000000000000000000000000047
:0849700000000000000000003F
:1050000000C00020956A0008E56A0008E56A00080B
:10501000E56A0008E56A0008E56A0008000000008B
:10502000000000000000000000000000E56A000829
:10503000E56A000800000000E56A0008E56A00086B
:10504000E56A0008E56A0008E56A0008E56A000804
:10505000E56A0008E56A0008E56A0008E56A0008F4
:10506000E56A0008E56A0008E56A0008E56A0008E4
:10507000E56A0008E56A0008E56A0008E56A0008D4
:10508000E56A0008E56A0008E56A0008E56A0008C4
:10509000E56A0008E56A0008E56A0008E56A0008B4
:1050A000E56A0008E56A0008E56A0008E56A0008A4
:1050B000E56A00080000000000000000E56A000842
:1050C000E56A00080000000000000000E56A000832
:1050D00000000000E56A0008E56A00080000000022
:1050E000E56A0008E56A0008000000000000000012
:1050F00000000000000000000000000000000000B0
:10510000000000000000000000000000E56A000848
:105110000000000000000000C9610008E56A000806
:10512000E56A0008E56A0008E56A0008E56A000823
:10513000E56A000800000000000000000000000018
:10514000E56A0008E56A0008E56A0008A56100084C
:10515000E56A0008E56A0008E56A0008E56A0008F3
:10516000E56A0008E56A0008E56A0008000000003A
:10517000E56A0008E56A0008000000000000000081
:10518000E56A0008E56A0008E56A0008000000001A
:1051900010B5054C237833B9044B13B10448AFF371
:1051A00000800123237010BDA00200200000000039
:1051B000703A010808B5034B1BB103490348AFF32C
:1051C000008008BD00000000A4020020703A010821
:1051D00081F0004102E000BF83F0004330B54FEAA8
:1051E00041044FEA430594EA050F08BF90EA020F15
:1051F0001FBF54EA000C55EA020C7FEA645C7FEAA8
:10520000655C00F0E2804FEA5454D4EB5555B8BFCA
:105210006D420CDD2C4480EA020281EA030382EA3B
:10522000000083EA010180EA020281EA0303362DCD
:1052300088BF30BD11F0004F4FEA01314FF4801CA0
:105240004CEA113102D0404261EB410113F0004FB2
:105250004FEA03334CEA133302D0524263EB430369
:1052600094EA050F00F0A780A4F10104D5F1200E07
:105270000DDB02FA0EFC22FA05F2801841F1000162
:1052800003FA0EF2801843FA05F359410EE0A5F136
:1052900020050EF1200E012A03FA0EFC28BF4CF067
:1052A000020C43FA05F3C01851EBE37101F000451D
:1052B00007D54FF0000EDCF1000C7EEB00006EEB2A
:1052C0000101B1F5801F1BD3B1F5001F0CD34908B4
:1052D0005FEA30004FEA3C0C04F101044FEA44520B
:1052E00012F5800F80F09A80BCF1004F08BF5FEA92
:1052F000500C50F1000041EB045141EA050130BD72
:105300005FEA4C0C404141EB010111F4801FA4F114
:105310000104E9D191F0000F04BF01460020B1FA69
:1053200081F308BF2033A3F10B03B3F120020CDAA1
:105330000C3208DD02F1140CC2F10C0201FA0CF07F
:1053400021FA02F10CE002F11402D8BFC2F1200CE4
:1053500001FA02F120FA0CFCDCBF41EA0C0190409A
:10536000E41AA2BF01EB0451294330BD6FEA0404E3
:105370001F3C1CDA0C340EDC04F11404C4F12002CE
:1053800020FA04F001FA02F340EA030021FA04F3E0
:1053900045EA030130BDC4F10C04C4F1200220FA37
:1053A00002F001FA04F340EA0300294630BD21FA75
:1053B00004F0294630BD94F0000F83F4801306BF3B
:1053C00081F480110134013D4EE77FEA645C18BF2F
:1053D0007FEA655C29D094EA050F08BF90EA020FC6
:1053E00005D054EA000C04BF1946104630BD91EABE
:1053F000030F1EBF0021002030BD5FEA545C05D1C1
:105400004000494128BF41F0004130BD14F58004FF
:105410003CBF01F5801130BD01F0004545F0FE4173
:1054200041F470014FF0000030BD7FEA645C1ABFA8
:10543000194610467FEA655C1CBF0B46024650EADF
:10544000013406BF52EA033591EA030F41F400210B
:1054500030BD00BF90F0000F04BF0021704730B591
:105460004FF4806404F132044FF000054FF0000166
:1054700050E700BF90F0000F04BF0021704730B527
:105480004FF4806404F1320410F0004548BF4042FC
:105490004FF000013EE700BF42004FEAE2014FEA51
:1054A00031014FEA02701FBF12F07F4393F07F4F2C
:1054B00081F06051704732F07F4208BF704793F02F
:1054C0007F4F04BF41F40021704730B54FF4607442
:1054D00001F0004521F000411CE700BF50EA010245
:1054E00008BF704730B54FF000050AE050EA0102EE
:1054F00008BF704730B511F0004502D5404261EB5E
:1055000041014FF4806404F132045FEA915C3FF49E
:10551000D8AE4FF003025FEADC0C18BF03325FEA3B
:10552000DC0C18BF033202EBDC02C2F1200300FAEC
:1055300003FC20FA02F001FA03FE40EA0E0021FA11
:1055400002F11444BDE600BF10F8012B11F8013B35
:10555000012A28BF9A42F7D0D01A7047034613F8A1
:10556000012B002AFBD1181A0138704700000000F7
:1055700001F0FF01102A2BDB10F0070F08D010F804
:10558000013B013A8B422DD010F0070F42B3F6D108
:10559000F0B441EA012141EA014122F007047FF021
:1055A00000070023F0E80256083C85EA010586EA78
:1055B000010685FA47F5A3FA87F586FA47F6A5FAB4
:1055C00087F68EB9EED1F0BC01F0FF0102F00702C0
:1055D00032B110F8013B013A83EA010313B1F8D16B
:1055E0000020704701387047002D06BF354603384C
:1055F000073815F0010F07D1013015F4807F02BF85
:10560000013015F4C03F0130F0BC0138704700BFD5
:1056100070B54FF0FF0C4CF4E06C1CEA11541DBF48
:105620001CEA135594EA0C0F95EA0C0F00F0DEF813
:105630002C4481EA030621EA4C5123EA4C5350EAF8
:10564000013518BF52EA033541F4801143F4801349
:1056500038D0A0FB02CE4FF00005E1FB02E506F0DA
:105660000042E0FB03E54FF00006E1FB03569CF02F
:10567000000F18BF4EF0010EA4F1FF04B6F5007F35
:1056800064F5407404D25FEA4E0E6D4146EB0606A7
:1056900042EAC62141EA55514FEAC52040EA5E5030
:1056A0004FEACE2EB4F1FD0C88BFBCF5E06F1ED8DA
:1056B000BEF1004F08BF5FEA500E50F1000041EB11
:1056C000045170BD06F0004646EA010140EA0200BE
:1056D00081EA0301B4EB5C04C2BFD4EB0C0541EAE0
:1056E000045170BD41F480114FF0000E013C00F3F5
:1056F000AB8014F1360FDEBF002001F0004170BD19
:10570000C4F10004203C35DA0C341BDC04F1140431
:10571000C4F1200500FA05F320FA04F001FA05F2BD
:1057200040EA020001F0004221F0004110EBD3708A
:1057300021FA04F642EB06015EEA430E08BF20EAB6
:10574000D37070BDC4F10C04C4F1200500FA04F359
:1057500020FA05F001FA04F240EA020001F00041EB
:1057600010EBD37041F100015EEA430E08BF20EA5E
:10577000D37070BDC4F1200500FA05F24EEA020EA6
:1057800020FA04F301FA05F243EA020321FA04F0D5
:1057900001F0004121FA04F220EA020000EBD3708C
:1057A0005EEA430E08BF20EAD37070BD94F0000F8C
:1057B0000FD101F00046400041EB010111F4801FC0
:1057C00008BF013CF7D041EA060195F0000F18BF71
:1057D000704703F00046520043EB030313F4801FAD
:1057E00008BF013DF7D043EA0603704794EA0C0F67
:1057F0000CEA135518BF95EA0C0F0CD050EA41067D
:1058000018BF52EA4306D1D181EA030101F00041F9
:105810004FF0000070BD50EA410606BF1046194621
:1058200052EA430619D094EA0C0F02D150EA01362D
:1058300013D195EA0C0F05D152EA03361CBF10466E
:1058400019460AD181EA030101F0004141F0FE410D
:1058500041F470014FF0000070BD41F0FE4141F491
:10586000780170BD70B54FF0FF0C4CF4E06C1CEA91
:1058700011541DBF1CEA135594EA0C0F95EA0C0F46
:1058800000F0A7F8A4EB050481EA030E52EA033501
:105890004FEA013100F088804FEA03334FF0805522
:1058A00045EA131343EA12634FEA022245EA11154F
:1058B00045EA10654FEA00260EF000419D4208BF00
:1058C000964244F1FD0404F5407402D25B084FEAAD
:1058D0003202B61A65EB03055B084FEA32024FF459
:1058E00080104FF4002CB6EB020E75EB030E22BFB6
:1058F000B61A754640EA0C005B084FEA3202B6EB76
:10590000020E75EB030E22BFB61A754640EA5C0024
:105910005B084FEA3202B6EB020E75EB030E22BFB4
:10592000B61A754640EA9C005B084FEA3202B6EBB5
:10593000020E75EB030E22BFB61A754640EADC0074
:1059400055EA060E18D04FEA051545EA16754FEAD6
:1059500006164FEAC30343EA52734FEAC2025FEAF4
:105960001C1CC0D111F4801F0BD141EA00014FF083
:1059700000004FF0004CB6E711F4801F04BF014354
:105980000020B4F1FD0C88BFBCF5E06F3FF6AFAE70
:10599000B5EB030C04BFB6EB020C5FEA500C50F100
:1059A000000041EB045170BD0EF0004E4EEA113183
:1059B00014EB5C04C2BFD4EB0C0541EA045170BD8A
:1059C00041F480114FF0000E013C90E645EA060ECE
:1059D0008DE60CEA135594EA0C0F08BF95EA0C0FFC
:1059E0003FF43BAF94EA0C0F0AD150EA01347FF444
:1059F00034AF95EA0C0F7FF425AF104619462CE71B
:105A000095EA0C0F06D152EA03353FF4FDAE10467D
:105A1000194622E750EA410618BF52EA43067FF4CE
:105A2000C5AE50EA41047FF40DAF52EA43057FF45E
:105A3000EBAE12E74FF0FF3C06E000BF4FF0010C69
:105A400002E000BF4FF0010C4DF804CD4FEA410CCD
:105A50007FEA6C5C4FEA430C18BF7FEA6C5C1BD09A
:105A600001B050EA410C0CBF52EA430C91EA030F1B
:105A700002BF90EA020F0020704710F1000F91EA78
:105A8000030F58BF994208BF90422CBFD8176FEA46
:105A9000E37040F0010070474FEA410C7FEA6C5C14
:105AA00002D150EA013C07D14FEA430C7FEA6C5C1B
:105AB000D6D152EA033CD3D05DF8040B704700BF47
:105AC0008446104662468C461946634600E000BF95
:105AD00001B5FFF7B7FF002848BF10F1000F01BD67
:105AE0004DF808EDFFF7F4FF0CBF012000205DF832
:105AF00008FB00BF4DF808EDFFF7EAFF34BF0120B7
:105B000000205DF808FB00BF4DF808EDFFF7E0FF4F
:105B100094BF012000205DF808FB00BF4DF808EDA0
:105B2000FFF7CEFF94BF012000205DF808FB00BF07
:105B30004DF808EDFFF7C4FF34BF012000205DF8E9
:105B400008FB00BF4FEA410C7FEA6C5C02D150EACF
:105B5000013C0AD14FEA430C7FEA6C5C02D152EA65
:105B6000033C02D14FF0000070474FF00100704736
:105B70004FEA410212F5001215D211D56FF4787375
:105B8000B3EB625212D94FEAC12343F0004343EA18
:105B9000505311F0004F23FA02F018BF40427047F3
:105BA0004FF00000704750EA013005D111F000407D
:105BB00008BF6FF0004070474FF00000704700BF13
:105BC000024BD868C0F30220704700BF00ED00E030
:105BD000054AD16C0143D164D36C82B00340019378
:105BE000019B02B0704700BF00100240054A916D52
:105BF00001439165936D82B003400193019B02B014
:105C0000704700BF00100240002070474D4A1368E3
:105C100023F0070343F0020310B51360136803F089
:105C20000703022B03D08621474800F041FD474A75
:105C3000474C136823F4C06343F400731360D4F833
:105C4000983043F00103C4F89830D4F898309A079C
:105C5000FBD5236843F00103236023689B07FCD531
:105C6000236843F008032360236823F0F00343F024
:105C7000B0032360636823F47F436360A36823F069
:105C80000303A360A36813F00C0FFBD1A368314892
:105C900023F0F003A360A36823F4E063A360A36888
:105CA00043F46053A36002F033F92B4A2948136888
:105CB00043F00403136002F039F9D4F8883023F07C
:105CC0000303C4F88830D4F8883023F04063C4F864
:105CD00088304FF08070FFF789FFA36B43F080732B
:105CE000A363A36B23F08073A3631C4B5A6822F059
:105CF000E0625A605A6822F000425A605A6822F004
:105D0000405242F000525A605A68120C120442F497
:105D10003B4242F07F025A605A6822F47F0242F40A
:105D200008125A601A6822F47C5242F400521A6037
:105D3000FFF746FFFFF768FF094B0001C0B283F889
:105D4000230010BD002002405C3D010800700040AF
:105D500000100240006CDC0210E000E00060004037
:105D600000ED00E0F0B57B4C236E43F001032366A9
:105D7000236E95B003F0010300934FF08050009B19
:105D8000FFF734FF744AD36823F4E0631B041B0C51
:105D900043F0BF6343F40133D360FFF711FFFFF714
:105DA00033FF0001C0B21076FFF70AFFFFF72CFFA8
:105DB0000001C0B25076FFF703FFFFF725FF000197
:105DC000C0B29076FFF7FCFEFFF71EFF0001C0B2E5
:105DD000D077FFF7F5FEFFF717FF0001C0B282F89A
:105DE0002000FFF7EDFEFFF70FFF0001C0B282F8C1
:105DF0002200FFF7E5FEFFF707FF0001C0B282F8BF
:105E00002300A36D43F08053A365FFF7FFFE01203D
:105E10004FF08044FFF7DCFE02200025FFF7D8FE9C
:105E20000120FFF7E3FE4FF47A77256101A92046B0
:105E3000CDE90375ADF80450029500F077FE2368B4
:105E400043F080032360A36823F4A03323F0070307
:105E50000126A3600CAA602310212046CDE90C3650
:105E6000CDE90E67109500F09BFEA3693B4F23F42C
:105E70008063A3610CAA4FF480712046CDE90D66C2
:105E800000F08EFE7B6823F004037B600CAA4FF4C5
:105E900080512046CDE90D6600F082FE7B6823F438
:105EA00080637B60A36823F00803A360A36823F4E6
:105EB0008043A360A36823F43F43A360636823F097
:105EC00070036360A36823F08003A3600E2206A919
:105ED00002234FF09040CDE90623CDE90855CDE9E6
:105EE0000A5600F0ADFF236833432360102004F509
:105EF0008054FFF77BFE4BF68033ADF830300CA9B1
:105F00005A2320460E930D9500F010FE236823F0CF
:105F100080032360636823F070036360A36823F049
:105F20008003A360E3683343E36023683343236063
:105F30004FF48020FFF74CFE094A136843F0040336
:105F40001360256162B6074B4FF480025A6015B0AA
:105F5000F0BD00BF0010024000ED00E0180000405E
:105F60000008065000E100E00D4A0E49536843F472
:105F7000806310B5536002F5D0320B4C936D43F043
:105F8000806393652046002202F0A9F92046074964
:105F900002F0BAF92046BDE8104002F0BCB900BFDB
:105FA00000700040A80000202C5800202C00002089
:105FB000044B5A69002ABFBF034A9A6002F1883233
:105FC0009A607047002002402301674508B572B609
:105FD00011490B69DB03FCD4FFF7EAFF0B690B6186
:105FE0004A6922F4FF6222F007024A614B6943EAE0
:105FF000C00343F002034B614B6943F480334B61B0
:10600000054B1A69D203FCD41A695A6922F00702B7
:106010005A6162B608BD00BF0020024030B572B6BA
:106020000C490C460D69ED03FCD40D690D614D69F9
:1060300045F001054D61026043602369DB03FCD438
:10604000236901232361636923F00103636162B65D
:1060500030BD00BF002002402DE9F3411546164A2D
:106060001369DB03FCD4FFF7A3FF20F007002C46E5
:1060700046194F192B1B9D42A6EB040802D802B00B
:10608000BDE8F081082C2246A7EB040128BF0822B6
:1060900068460AF05FFF072C06D8C4F10802FF210A
:1060A0000DEB04000AF070FFDDE900234046FFF726
:1060B000B5FF083CDEE700BF00200240024A5369FA
:1060C00043F00043536170470020024008B5134A73
:1060D000134B144900280CBF184610460B6A20F0D9
:1060E000E060834219D072B60B69DA03FCD4FFF783
:1060F0005FFF4B695B0041BF0B4BCB6003F1443347
:10610000CB60084B18625A6942F400325A611A692E
:10611000D203FCD4FFF7D2FF62B608BDAAF8FFF79E
:10612000AAF8FFFF002002403B2A190873B50F4C64
:106130000422131F8B4201D302B070BD6568ED07C6
:10614000FCD5A5680095656815F0660F02D00120A2
:106150000AF09AFE6D469942EED315F8016BC654CB
